{
  "_format": "hh-sol-artifact-1",
  "contractName": "BreakNFT",
  "sourceName": "contracts/BreakNFT.sol",
  "abi": [
    {
      "inputs": [
        {
          "internalType": "string[]",
          "name": "teamNames",
          "type": "string[]"
        },
        {
          "internalType": "string[]",
          "name": "teamImageURIs",
          "type": "string[]"
        }
      ],
      "stateMutability": "nonpayable",
      "type": "constructor"
    },
    {
      "anonymous": false,
      "inputs": [
        {
          "indexed": true,
          "internalType": "address",
          "name": "owner",
          "type": "address"
        },
        {
          "indexed": true,
          "internalType": "address",
          "name": "approved",
          "type": "address"
        },
        {
          "indexed": true,
          "internalType": "uint256",
          "name": "tokenId",
          "type": "uint256"
        }
      ],
      "name": "Approval",
      "type": "event"
    },
    {
      "anonymous": false,
      "inputs": [
        {
          "indexed": true,
          "internalType": "address",
          "name": "owner",
          "type": "address"
        },
        {
          "indexed": true,
          "internalType": "address",
          "name": "operator",
          "type": "address"
        },
        {
          "indexed": false,
          "internalType": "bool",
          "name": "approved",
          "type": "bool"
        }
      ],
      "name": "ApprovalForAll",
      "type": "event"
    },
    {
      "anonymous": false,
      "inputs": [
        {
          "indexed": true,
          "internalType": "address",
          "name": "from",
          "type": "address"
        },
        {
          "indexed": true,
          "internalType": "address",
          "name": "to",
          "type": "address"
        },
        {
          "indexed": true,
          "internalType": "uint256",
          "name": "tokenId",
          "type": "uint256"
        }
      ],
      "name": "Transfer",
      "type": "event"
    },
    {
      "anonymous": false,
      "inputs": [
        {
          "indexed": false,
          "internalType": "address",
          "name": "sender",
          "type": "address"
        },
        {
          "indexed": false,
          "internalType": "uint256",
          "name": "tokenId",
          "type": "uint256"
        },
        {
          "indexed": false,
          "internalType": "uint256",
          "name": "characterIndex",
          "type": "uint256"
        }
      ],
      "name": "teamNFTMinted",
      "type": "event"
    },
    {
      "inputs": [
        {
          "internalType": "address",
          "name": "to",
          "type": "address"
        },
        {
          "internalType": "uint256",
          "name": "tokenId",
          "type": "uint256"
        }
      ],
      "name": "approve",
      "outputs": [],
      "stateMutability": "nonpayable",
      "type": "function"
    },
    {
      "inputs": [
        {
          "internalType": "address",
          "name": "owner",
          "type": "address"
        }
      ],
      "name": "balanceOf",
      "outputs": [
        {
          "internalType": "uint256",
          "name": "",
          "type": "uint256"
        }
      ],
      "stateMutability": "view",
      "type": "function"
    },
    {
      "inputs": [],
      "name": "checkIfUserHasNft",
      "outputs": [
        {
          "components": [
            {
              "internalType": "uint256",
              "name": "teamIndex",
              "type": "uint256"
            },
            {
              "internalType": "string",
              "name": "teamName",
              "type": "string"
            },
            {
              "internalType": "string",
              "name": "teamImageURI",
              "type": "string"
            }
          ],
          "internalType": "struct BreakNFT.Team",
          "name": "",
          "type": "tuple"
        }
      ],
      "stateMutability": "view",
      "type": "function"
    },
    {
      "inputs": [],
      "name": "getAllDefaultTeams",
      "outputs": [
        {
          "components": [
            {
              "internalType": "uint256",
              "name": "teamIndex",
              "type": "uint256"
            },
            {
              "internalType": "string",
              "name": "teamName",
              "type": "string"
            },
            {
              "internalType": "string",
              "name": "teamImageURI",
              "type": "string"
            }
          ],
          "internalType": "struct BreakNFT.Team[]",
          "name": "",
          "type": "tuple[]"
        }
      ],
      "stateMutability": "view",
      "type": "function"
    },
    {
      "inputs": [
        {
          "internalType": "uint256",
          "name": "tokenId",
          "type": "uint256"
        }
      ],
      "name": "getApproved",
      "outputs": [
        {
          "internalType": "address",
          "name": "",
          "type": "address"
        }
      ],
      "stateMutability": "view",
      "type": "function"
    },
    {
      "inputs": [
        {
          "internalType": "uint256",
          "name": "index",
          "type": "uint256"
        }
      ],
      "name": "getTeam",
      "outputs": [
        {
          "components": [
            {
              "internalType": "uint256",
              "name": "teamIndex",
              "type": "uint256"
            },
            {
              "internalType": "string",
              "name": "teamName",
              "type": "string"
            },
            {
              "internalType": "string",
              "name": "teamImageURI",
              "type": "string"
            }
          ],
          "internalType": "struct BreakNFT.Team",
          "name": "",
          "type": "tuple"
        }
      ],
      "stateMutability": "view",
      "type": "function"
    },
    {
      "inputs": [
        {
          "internalType": "address",
          "name": "owner",
          "type": "address"
        },
        {
          "internalType": "address",
          "name": "operator",
          "type": "address"
        }
      ],
      "name": "isApprovedForAll",
      "outputs": [
        {
          "internalType": "bool",
          "name": "",
          "type": "bool"
        }
      ],
      "stateMutability": "view",
      "type": "function"
    },
    {
      "inputs": [
        {
          "internalType": "uint256",
          "name": "_teamIndex",
          "type": "uint256"
        }
      ],
      "name": "makeAnNFT",
      "outputs": [],
      "stateMutability": "nonpayable",
      "type": "function"
    },
    {
      "inputs": [],
      "name": "name",
      "outputs": [
        {
          "internalType": "string",
          "name": "",
          "type": "string"
        }
      ],
      "stateMutability": "view",
      "type": "function"
    },
    {
      "inputs": [
        {
          "internalType": "address",
          "name": "",
          "type": "address"
        }
      ],
      "name": "nftHolderAttributes",
      "outputs": [
        {
          "internalType": "uint256",
          "name": "",
          "type": "uint256"
        }
      ],
      "stateMutability": "view",
      "type": "function"
    },
    {
      "inputs": [
        {
          "internalType": "address",
          "name": "",
          "type": "address"
        }
      ],
      "name": "nftHolders",
      "outputs": [
        {
          "internalType": "uint256",
          "name": "",
          "type": "uint256"
        }
      ],
      "stateMutability": "view",
      "type": "function"
    },
    {
      "inputs": [
        {
          "internalType": "uint256",
          "name": "tokenId",
          "type": "uint256"
        }
      ],
      "name": "ownerOf",
      "outputs": [
        {
          "internalType": "address",
          "name": "",
          "type": "address"
        }
      ],
      "stateMutability": "view",
      "type": "function"
    },
    {
      "inputs": [
        {
          "internalType": "address",
          "name": "from",
          "type": "address"
        },
        {
          "internalType": "address",
          "name": "to",
          "type": "address"
        },
        {
          "internalType": "uint256",
          "name": "tokenId",
          "type": "uint256"
        }
      ],
      "name": "safeTransferFrom",
      "outputs": [],
      "stateMutability": "nonpayable",
      "type": "function"
    },
    {
      "inputs": [
        {
          "internalType": "address",
          "name": "from",
          "type": "address"
        },
        {
          "internalType": "address",
          "name": "to",
          "type": "address"
        },
        {
          "internalType": "uint256",
          "name": "tokenId",
          "type": "uint256"
        },
        {
          "internalType": "bytes",
          "name": "data",
          "type": "bytes"
        }
      ],
      "name": "safeTransferFrom",
      "outputs": [],
      "stateMutability": "nonpayable",
      "type": "function"
    },
    {
      "inputs": [
        {
          "internalType": "address",
          "name": "operator",
          "type": "address"
        },
        {
          "internalType": "bool",
          "name": "approved",
          "type": "bool"
        }
      ],
      "name": "setApprovalForAll",
      "outputs": [],
      "stateMutability": "nonpayable",
      "type": "function"
    },
    {
      "inputs": [
        {
          "internalType": "bytes4",
          "name": "interfaceId",
          "type": "bytes4"
        }
      ],
      "name": "supportsInterface",
      "outputs": [
        {
          "internalType": "bool",
          "name": "",
          "type": "bool"
        }
      ],
      "stateMutability": "view",
      "type": "function"
    },
    {
      "inputs": [],
      "name": "symbol",
      "outputs": [
        {
          "internalType": "string",
          "name": "",
          "type": "string"
        }
      ],
      "stateMutability": "view",
      "type": "function"
    },
    {
      "inputs": [
        {
          "internalType": "uint256",
          "name": "_tokenId",
          "type": "uint256"
        }
      ],
      "name": "tokenURI",
      "outputs": [
        {
          "internalType": "string",
          "name": "",
          "type": "string"
        }
      ],
      "stateMutability": "view",
      "type": "function"
    },
    {
      "inputs": [
        {
          "internalType": "address",
          "name": "from",
          "type": "address"
        },
        {
          "internalType": "address",
          "name": "to",
          "type": "address"
        },
        {
          "internalType": "uint256",
          "name": "tokenId",
          "type": "uint256"
        }
      ],
      "name": "transferFrom",
      "outputs": [],
      "stateMutability": "nonpayable",
      "type": "function"
    }
  ],
  "bytecode": "0x60806040523480156200001157600080fd5b50604051620044663803806200446683398181016040528101906200003791906200075a565b6040518060400160405280600881526020017f427265616b4e46540000000000000000000000000000000000000000000000008152506040518060400160405280600481526020017f424e4654000000000000000000000000000000000000000000000000000000008152508160009080519060200190620000bb929190620005a6565b508060019080519060200190620000d4929190620005a6565b50505060005b8251811015620003dd57600a604051806060016040528083815260200185848151811062000131577f4e487b7100000000000000000000000000000000000000000000000000000000600052603260045260246000fd5b6020026020010151815260200184848151811062000178577f4e487b7100000000000000000000000000000000000000000000000000000000600052603260045260246000fd5b60200260200101518152509080600181540180825580915050600190039060005260206000209060030201600090919091909150600082015181600001556020820151816001019080519060200190620001d4929190620005a6565b506040820151816002019080519060200190620001f3929190620005a6565b5050506000600a828154811062000233577f4e487b7100000000000000000000000000000000000000000000000000000000600052603260045260246000fd5b9060005260206000209060030201604051806060016040529081600082015481526020016001820180546200026890620009cb565b80601f01602080910402602001604051908101604052809291908181526020018280546200029690620009cb565b8015620002e75780601f10620002bb57610100808354040283529160200191620002e7565b820191906000526020600020905b815481529060010190602001808311620002c957829003601f168201915b505050505081526020016002820180546200030290620009cb565b80601f01602080910402602001604051908101604052809291908181526020018280546200033090620009cb565b8015620003815780601f10620003555761010080835404028352916020019162000381565b820191906000526020600020905b8154815290600101906020018083116200036357829003601f168201915b5050505050815250509050620003c56040518060600160405280602981526020016200443d60299139826020015183604001516200043160201b620013701760201c565b50600181620003d591906200092e565b9050620000da565b50620004296040518060400160405280601e81526020017f54686973206973206d79204e465420636f6e74726163742e2057686f61210000815250620004da60201b6200140f1760201c565b505062000ad5565b620004d58383836040516024016200044c9392919062000832565b6040516020818303038152906040527f2ced7cef000000000000000000000000000000000000000000000000000000007bffffffffffffffffffffffffffffffffffffffffffffffffffffffff19166020820180517bffffffffffffffffffffffffffffffffffffffffffffffffffffffff83818316178352505050506200057d60201b60201c565b505050565b6200057a81604051602401620004f191906200080e565b6040516020818303038152906040527f41304fac000000000000000000000000000000000000000000000000000000007bffffffffffffffffffffffffffffffffffffffffffffffffffffffff19166020820180517bffffffffffffffffffffffffffffffffffffffffffffffffffffffff83818316178352505050506200057d60201b60201c565b50565b60008151905060006a636f6e736f6c652e6c6f679050602083016000808483855afa5050505050565b828054620005b490620009cb565b90600052602060002090601f016020900481019282620005d8576000855562000624565b82601f10620005f357805160ff191683800117855562000624565b8280016001018555821562000624579182015b828111156200062357825182559160200191906001019062000606565b5b50905062000633919062000637565b5090565b5b808211156200065257600081600090555060010162000638565b5090565b60006200066d6200066784620008ad565b62000884565b9050808382526020820190508260005b85811015620006b157815185016200069688826200072d565b8452602084019350602083019250506001810190506200067d565b5050509392505050565b6000620006d2620006cc84620008dc565b62000884565b905082815260208101848484011115620006eb57600080fd5b620006f884828562000995565b509392505050565b600082601f8301126200071257600080fd5b81516200072484826020860162000656565b91505092915050565b600082601f8301126200073f57600080fd5b815162000751848260208601620006bb565b91505092915050565b600080604083850312156200076e57600080fd5b600083015167ffffffffffffffff8111156200078957600080fd5b620007978582860162000700565b925050602083015167ffffffffffffffff811115620007b557600080fd5b620007c38582860162000700565b9150509250929050565b6000620007da8262000912565b620007e681856200091d565b9350620007f881856020860162000995565b620008038162000ac4565b840191505092915050565b600060208201905081810360008301526200082a8184620007cd565b905092915050565b600060608201905081810360008301526200084e8186620007cd565b90508181036020830152620008648185620007cd565b905081810360408301526200087a8184620007cd565b9050949350505050565b600062000890620008a3565b90506200089e828262000a01565b919050565b6000604051905090565b600067ffffffffffffffff821115620008cb57620008ca62000a95565b5b602082029050602081019050919050565b600067ffffffffffffffff821115620008fa57620008f962000a95565b5b620009058262000ac4565b9050602081019050919050565b600081519050919050565b600082825260208201905092915050565b60006200093b826200098b565b915062000948836200098b565b9250827fffffffffffffffffffffffffffffffffffffffffffffffffffffffffffffffff0382111562000980576200097f62000a37565b5b828201905092915050565b6000819050919050565b60005b83811015620009b557808201518184015260208101905062000998565b83811115620009c5576000848401525b50505050565b60006002820490506001821680620009e457607f821691505b60208210811415620009fb57620009fa62000a66565b5b50919050565b62000a0c8262000ac4565b810181811067ffffffffffffffff8211171562000a2e5762000a2d62000a95565b5b80604052505050565b7f4e487b7100000000000000000000000000000000000000000000000000000000600052601160045260246000fd5b7f4e487b7100000000000000000000000000000000000000000000000000000000600052602260045260246000fd5b7f4e487b7100000000000000000000000000000000000000000000000000000000600052604160045260246000fd5b6000601f19601f8301169050919050565b6139588062000ae56000396000f3fe608060405234801561001057600080fd5b50600436106101205760003560e01c806370a08231116100ad578063c732d39611610071578063c732d3961461033d578063c87b56dd1461035b578063ca47aa031461038b578063e985e9c5146103a7578063ef991b61146103d757610120565b806370a08231146102875780637df124a1146102b757806395d89b41146102e7578063a22cb46514610305578063b88d4fde1461032157610120565b8063095ea7b3116100f4578063095ea7b3146101d357806323b872dd146101ef57806342842e0e1461020b5780636352211e146102275780636740aa311461025757610120565b80628e0f1b1461012557806301ffc9a71461015557806306fdde0314610185578063081812fc146101a3575b600080fd5b61013f600480360381019061013a9190612720565b6103f5565b60405161014c9190612f65565b60405180910390f35b61016f600480360381019061016a91906126ce565b610585565b60405161017c9190612d5c565b60405180910390f35b61018d610667565b60405161019a9190612d77565b60405180910390f35b6101bd60048036038101906101b89190612720565b6106f9565b6040516101ca9190612c9c565b60405180910390f35b6101ed60048036038101906101e89190612692565b61073f565b005b6102096004803603810190610204919061258c565b610857565b005b6102256004803603810190610220919061258c565b6108b7565b005b610241600480360381019061023c9190612720565b6108d7565b60405161024e9190612c9c565b60405180910390f35b610271600480360381019061026c9190612527565b610989565b60405161027e9190612f87565b60405180910390f35b6102a1600480360381019061029c9190612527565b6109a1565b6040516102ae9190612f87565b60405180910390f35b6102d160048036038101906102cc9190612527565b610a59565b6040516102de9190612f87565b60405180910390f35b6102ef610a71565b6040516102fc9190612d77565b60405180910390f35b61031f600480360381019061031a9190612656565b610b03565b005b61033b600480360381019061033691906125db565b610b19565b005b610345610b7b565b6040516103529190612f65565b60405180910390f35b61037560048036038101906103709190612720565b610d6a565b6040516103829190612d77565b60405180910390f35b6103a560048036038101906103a09190612720565b610f60565b005b6103c160048036038101906103bc9190612550565b61114f565b6040516103ce9190612d5c565b60405180910390f35b6103df6111e3565b6040516103ec9190612d3a565b60405180910390f35b6103fd612392565b600a8281548110610437577f4e487b7100000000000000000000000000000000000000000000000000000000600052603260045260246000fd5b90600052602060002090600302016040518060600160405290816000820154815260200160018201805461046a90613250565b80601f016020809104026020016040519081016040528092919081815260200182805461049690613250565b80156104e35780601f106104b8576101008083540402835291602001916104e3565b820191906000526020600020905b8154815290600101906020018083116104c657829003601f168201915b505050505081526020016002820180546104fc90613250565b80601f016020809104026020016040519081016040528092919081815260200182805461052890613250565b80156105755780601f1061054a57610100808354040283529160200191610575565b820191906000526020600020905b81548152906001019060200180831161055857829003601f168201915b5050505050815250509050919050565b60007f80ac58cd000000000000000000000000000000000000000000000000000000007bffffffffffffffffffffffffffffffffffffffffffffffffffffffff1916827bffffffffffffffffffffffffffffffffffffffffffffffffffffffff1916148061065057507f5b5e139f000000000000000000000000000000000000000000000000000000007bffffffffffffffffffffffffffffffffffffffffffffffffffffffff1916827bffffffffffffffffffffffffffffffffffffffffffffffffffffffff1916145b80610660575061065f826114a8565b5b9050919050565b60606000805461067690613250565b80601f01602080910402602001604051908101604052809291908181526020018280546106a290613250565b80156106ef5780601f106106c4576101008083540402835291602001916106ef565b820191906000526020600020905b8154815290600101906020018083116106d257829003601f168201915b5050505050905090565b600061070482611512565b6004600083815260200190815260200160002060009054906101000a900473ffffffffffffffffffffffffffffffffffffffff169050919050565b600061074a826108d7565b90508073ffffffffffffffffffffffffffffffffffffffff168373ffffffffffffffffffffffffffffffffffffffff1614156107bb576040517f08c379a00000000000000000000000000000000000000000000000000000000081526004016107b290612f25565b60405180910390fd5b8073ffffffffffffffffffffffffffffffffffffffff166107da61155d565b73ffffffffffffffffffffffffffffffffffffffff16148061080957506108088161080361155d565b61114f565b5b610848576040517f08c379a000000000000000000000000000000000000000000000000000000000815260040161083f90612ec5565b60405180910390fd5b6108528383611565565b505050565b61086861086261155d565b8261161e565b6108a7576040517f08c379a000000000000000000000000000000000000000000000000000000000815260040161089e90612f45565b60405180910390fd5b6108b28383836116b3565b505050565b6108d283838360405180602001604052806000815250610b19565b505050565b6000806002600084815260200190815260200160002060009054906101000a900473ffffffffffffffffffffffffffffffffffffffff169050600073ffffffffffffffffffffffffffffffffffffffff168173ffffffffffffffffffffffffffffffffffffffff161415610980576040517f08c379a000000000000000000000000000000000000000000000000000000000815260040161097790612f05565b60405180910390fd5b80915050919050565b60096020528060005260406000206000915090505481565b60008073ffffffffffffffffffffffffffffffffffffffff168273ffffffffffffffffffffffffffffffffffffffff161415610a12576040517f08c379a0000000000000000000000000000000000000000000000000000000008152600401610a0990612e85565b60405180910390fd5b600360008373ffffffffffffffffffffffffffffffffffffffff1673ffffffffffffffffffffffffffffffffffffffff168152602001908152602001600020549050919050565b60086020528060005260406000206000915090505481565b606060018054610a8090613250565b80601f0160208091040260200160405190810160405280929190818152602001828054610aac90613250565b8015610af95780601f10610ace57610100808354040283529160200191610af9565b820191906000526020600020905b815481529060010190602001808311610adc57829003601f168201915b5050505050905090565b610b15610b0e61155d565b838361191a565b5050565b610b2a610b2461155d565b8361161e565b610b69576040517f08c379a0000000000000000000000000000000000000000000000000000000008152600401610b6090612f45565b60405180910390fd5b610b7584848484611a87565b50505050565b610b83612392565b6000600860003373ffffffffffffffffffffffffffffffffffffffff1673ffffffffffffffffffffffffffffffffffffffff1681526020019081526020016000205490506000811115610d5957600a8181548110610c0a577f4e487b7100000000000000000000000000000000000000000000000000000000600052603260045260246000fd5b906000526020600020906003020160405180606001604052908160008201548152602001600182018054610c3d90613250565b80601f0160208091040260200160405190810160405280929190818152602001828054610c6990613250565b8015610cb65780601f10610c8b57610100808354040283529160200191610cb6565b820191906000526020600020905b815481529060010190602001808311610c9957829003601f168201915b50505050508152602001600282018054610ccf90613250565b80601f0160208091040260200160405190810160405280929190818152602001828054610cfb90613250565b8015610d485780601f10610d1d57610100808354040283529160200191610d48565b820191906000526020600020905b815481529060010190602001808311610d2b57829003601f168201915b505050505081525050915050610d67565b610d61612392565b80925050505b90565b60606000600a8381548110610da8577f4e487b7100000000000000000000000000000000000000000000000000000000600052603260045260246000fd5b906000526020600020906003020160405180606001604052908160008201548152602001600182018054610ddb90613250565b80601f0160208091040260200160405190810160405280929190818152602001828054610e0790613250565b8015610e545780601f10610e2957610100808354040283529160200191610e54565b820191906000526020600020905b815481529060010190602001808311610e3757829003601f168201915b50505050508152602001600282018054610e6d90613250565b80601f0160208091040260200160405190810160405280929190818152602001828054610e9990613250565b8015610ee65780601f10610ebb57610100808354040283529160200191610ee6565b820191906000526020600020905b815481529060010190602001808311610ec957829003601f168201915b50505050508152505090506000610f2f8260200151610f0486611ae3565b8460400151604051602001610f1b93929190612c1d565b604051602081830303815290604052611c90565b9050600081604051602001610f449190612c7a565b6040516020818303038152906040529050809350505050919050565b6000610f6c6007611e4e565b9050610f783382611e5c565b6110aa6040518060400160405280601e81526020017f4d696e746564204e465420666f722025732c206f776e65722069732025730000815250600a8481548110610feb577f4e487b7100000000000000000000000000000000000000000000000000000000600052603260045260246000fd5b9060005260206000209060030201600101805461100790613250565b80601f016020809104026020016040519081016040528092919081815260200182805461103390613250565b80156110805780601f1061105557610100808354040283529160200191611080565b820191906000526020600020905b81548152906001019060200180831161106357829003601f168201915b5050505050336040516020016110969190612c02565b604051602081830303815290604052611370565b60006110b582610d6a565b90506110c16007611e7a565b6110cb8282611e90565b81600860003373ffffffffffffffffffffffffffffffffffffffff1673ffffffffffffffffffffffffffffffffffffffff168152602001908152602001600020819055507f8797e23024208fc404d8937b0c82ef070e5d6ca973c1ae28f57f52976ee3868233838560405161114293929190612d03565b60405180910390a1505050565b6000600560008473ffffffffffffffffffffffffffffffffffffffff1673ffffffffffffffffffffffffffffffffffffffff16815260200190815260200160002060008373ffffffffffffffffffffffffffffffffffffffff1673ffffffffffffffffffffffffffffffffffffffff16815260200190815260200160002060009054906101000a900460ff16905092915050565b6060600a805480602002602001604051908101604052809291908181526020016000905b8282101561136757838290600052602060002090600302016040518060600160405290816000820154815260200160018201805461124490613250565b80601f016020809104026020016040519081016040528092919081815260200182805461127090613250565b80156112bd5780601f10611292576101008083540402835291602001916112bd565b820191906000526020600020905b8154815290600101906020018083116112a057829003601f168201915b505050505081526020016002820180546112d690613250565b80601f016020809104026020016040519081016040528092919081815260200182805461130290613250565b801561134f5780601f106113245761010080835404028352916020019161134f565b820191906000526020600020905b81548152906001019060200180831161133257829003601f168201915b50505050508152505081526020019060010190611207565b50505050905090565b61140a83838360405160240161138893929190612d99565b6040516020818303038152906040527f2ced7cef000000000000000000000000000000000000000000000000000000007bffffffffffffffffffffffffffffffffffffffffffffffffffffffff19166020820180517bffffffffffffffffffffffffffffffffffffffffffffffffffffffff8381831617835250505050611f04565b505050565b6114a5816040516024016114239190612d77565b6040516020818303038152906040527f41304fac000000000000000000000000000000000000000000000000000000007bffffffffffffffffffffffffffffffffffffffffffffffffffffffff19166020820180517bffffffffffffffffffffffffffffffffffffffffffffffffffffffff8381831617835250505050611f04565b50565b60007f01ffc9a7000000000000000000000000000000000000000000000000000000007bffffffffffffffffffffffffffffffffffffffffffffffffffffffff1916827bffffffffffffffffffffffffffffffffffffffffffffffffffffffff1916149050919050565b61151b81611f2d565b61155a576040517f08c379a000000000000000000000000000000000000000000000000000000000815260040161155190612f05565b60405180910390fd5b50565b600033905090565b816004600083815260200190815260200160002060006101000a81548173ffffffffffffffffffffffffffffffffffffffff021916908373ffffffffffffffffffffffffffffffffffffffff160217905550808273ffffffffffffffffffffffffffffffffffffffff166115d8836108d7565b73ffffffffffffffffffffffffffffffffffffffff167f8c5be1e5ebec7d5bd14f71427d1e84f3dd0314c0f7b2291e5b200ac8c7c3b92560405160405180910390a45050565b60008061162a836108d7565b90508073ffffffffffffffffffffffffffffffffffffffff168473ffffffffffffffffffffffffffffffffffffffff16148061166c575061166b818561114f565b5b806116aa57508373ffffffffffffffffffffffffffffffffffffffff16611692846106f9565b73ffffffffffffffffffffffffffffffffffffffff16145b91505092915050565b8273ffffffffffffffffffffffffffffffffffffffff166116d3826108d7565b73ffffffffffffffffffffffffffffffffffffffff1614611729576040517f08c379a000000000000000000000000000000000000000000000000000000000815260040161172090612e05565b60405180910390fd5b600073ffffffffffffffffffffffffffffffffffffffff168273ffffffffffffffffffffffffffffffffffffffff161415611799576040517f08c379a000000000000000000000000000000000000000000000000000000000815260040161179090612e45565b60405180910390fd5b6117a4838383611f99565b6117af600082611565565b6001600360008573ffffffffffffffffffffffffffffffffffffffff1673ffffffffffffffffffffffffffffffffffffffff16815260200190815260200160002060008282546117ff9190613166565b925050819055506001600360008473ffffffffffffffffffffffffffffffffffffffff1673ffffffffffffffffffffffffffffffffffffffff16815260200190815260200160002060008282546118569190613085565b92505081905550816002600083815260200190815260200160002060006101000a81548173ffffffffffffffffffffffffffffffffffffffff021916908373ffffffffffffffffffffffffffffffffffffffff160217905550808273ffffffffffffffffffffffffffffffffffffffff168473ffffffffffffffffffffffffffffffffffffffff167fddf252ad1be2c89b69c2b068fc378daa952ba7f163c4a11628f55a4df523b3ef60405160405180910390a4611915838383611f9e565b505050565b8173ffffffffffffffffffffffffffffffffffffffff168373ffffffffffffffffffffffffffffffffffffffff161415611989576040517f08c379a000000000000000000000000000000000000000000000000000000000815260040161198090612e65565b60405180910390fd5b80600560008573ffffffffffffffffffffffffffffffffffffffff1673ffffffffffffffffffffffffffffffffffffffff16815260200190815260200160002060008473ffffffffffffffffffffffffffffffffffffffff1673ffffffffffffffffffffffffffffffffffffffff16815260200190815260200160002060006101000a81548160ff0219169083151502179055508173ffffffffffffffffffffffffffffffffffffffff168373ffffffffffffffffffffffffffffffffffffffff167f17307eab39ab6107e8899845ad3d59bd9653f200f220920489ca2b5937696c3183604051611a7a9190612d5c565b60405180910390a3505050565b611a928484846116b3565b611a9e84848484611fa3565b611add576040517f08c379a0000000000000000000000000000000000000000000000000000000008152600401611ad490612de5565b60405180910390fd5b50505050565b60606000821415611b2b576040518060400160405280600181526020017f30000000000000000000000000000000000000000000000000000000000000008152509050611c8b565b600082905060005b60008214611b5d578080611b46906132b3565b915050600a82611b5691906130db565b9150611b33565b60008167ffffffffffffffff811115611b9f577f4e487b7100000000000000000000000000000000000000000000000000000000600052604160045260246000fd5b6040519080825280601f01601f191660200182016040528015611bd15781602001600182028036833780820191505090505b5090505b60008514611c8457600182611bea9190613166565b9150600a85611bf99190613320565b6030611c059190613085565b60f81b818381518110611c41577f4e487b7100000000000000000000000000000000000000000000000000000000600052603260045260246000fd5b60200101907effffffffffffffffffffffffffffffffffffffffffffffffffffffffffffff1916908160001a905350600a85611c7d91906130db565b9450611bd5565b8093505050505b919050565b60606000825190506000811415611cb95760405180602001604052806000815250915050611e49565b60006003600283611cca9190613085565b611cd491906130db565b6004611ce0919061310c565b90506000602082611cf19190613085565b67ffffffffffffffff811115611d30577f4e487b7100000000000000000000000000000000000000000000000000000000600052604160045260246000fd5b6040519080825280601f01601f191660200182016040528015611d625781602001600182028036833780820191505090505b50905060006040518060600160405280604081526020016138e3604091399050600181016020830160005b86811015611e065760038101905062ffffff818a015116603f8160121c168401518060081b905060ff603f83600c1c1686015116810190508060081b905060ff603f8360061c1686015116810190508060081b905060ff603f831686015116810190508060e01b90508084526004840193505050611d8d565b506003860660018114611e205760028114611e3057611e3b565b613d3d60f01b6002830352611e3b565b603d60f81b60018303525b508484525050819450505050505b919050565b600081600001549050919050565b611e7682826040518060200160405280600081525061213a565b5050565b6001816000016000828254019250508190555050565b611e9982611f2d565b611ed8576040517f08c379a0000000000000000000000000000000000000000000000000000000008152600401611ecf90612ea5565b60405180910390fd5b80600660008481526020019081526020016000209080519060200190611eff9291906123b3565b505050565b60008151905060006a636f6e736f6c652e6c6f679050602083016000808483855afa5050505050565b60008073ffffffffffffffffffffffffffffffffffffffff166002600084815260200190815260200160002060009054906101000a900473ffffffffffffffffffffffffffffffffffffffff1673ffffffffffffffffffffffffffffffffffffffff1614159050919050565b505050565b505050565b6000611fc48473ffffffffffffffffffffffffffffffffffffffff16612195565b1561212d578373ffffffffffffffffffffffffffffffffffffffff1663150b7a02611fed61155d565b8786866040518563ffffffff1660e01b815260040161200f9493929190612cb7565b602060405180830381600087803b15801561202957600080fd5b505af192505050801561205a57506040513d601f19601f8201168201806040525081019061205791906126f7565b60015b6120dd573d806000811461208a576040519150601f19603f3d011682016040523d82523d6000602084013e61208f565b606091505b506000815114156120d5576040517f08c379a00000000000000000000000000000000000000000000000000000000081526004016120cc90612de5565b60405180910390fd5b805181602001fd5b63150b7a0260e01b7bffffffffffffffffffffffffffffffffffffffffffffffffffffffff1916817bffffffffffffffffffffffffffffffffffffffffffffffffffffffff191614915050612132565b600190505b949350505050565b61214483836121b8565b6121516000848484611fa3565b612190576040517f08c379a000000000000000000000000000000000000000000000000000000000815260040161218790612de5565b60405180910390fd5b505050565b6000808273ffffffffffffffffffffffffffffffffffffffff163b119050919050565b600073ffffffffffffffffffffffffffffffffffffffff168273ffffffffffffffffffffffffffffffffffffffff161415612228576040517f08c379a000000000000000000000000000000000000000000000000000000000815260040161221f90612ee5565b60405180910390fd5b61223181611f2d565b15612271576040517f08c379a000000000000000000000000000000000000000000000000000000000815260040161226890612e25565b60405180910390fd5b61227d60008383611f99565b6001600360008473ffffffffffffffffffffffffffffffffffffffff1673ffffffffffffffffffffffffffffffffffffffff16815260200190815260200160002060008282546122cd9190613085565b92505081905550816002600083815260200190815260200160002060006101000a81548173ffffffffffffffffffffffffffffffffffffffff021916908373ffffffffffffffffffffffffffffffffffffffff160217905550808273ffffffffffffffffffffffffffffffffffffffff16600073ffffffffffffffffffffffffffffffffffffffff167fddf252ad1be2c89b69c2b068fc378daa952ba7f163c4a11628f55a4df523b3ef60405160405180910390a461238e60008383611f9e565b5050565b60405180606001604052806000815260200160608152602001606081525090565b8280546123bf90613250565b90600052602060002090601f0160209004810192826123e15760008555612428565b82601f106123fa57805160ff1916838001178555612428565b82800160010185558215612428579182015b8281111561242757825182559160200191906001019061240c565b5b5090506124359190612439565b5090565b5b8082111561245257600081600090555060010161243a565b5090565b600061246961246484612fc7565b612fa2565b90508281526020810184848401111561248157600080fd5b61248c84828561320e565b509392505050565b6000813590506124a381613886565b92915050565b6000813590506124b88161389d565b92915050565b6000813590506124cd816138b4565b92915050565b6000815190506124e2816138b4565b92915050565b600082601f8301126124f957600080fd5b8135612509848260208601612456565b91505092915050565b600081359050612521816138cb565b92915050565b60006020828403121561253957600080fd5b600061254784828501612494565b91505092915050565b6000806040838503121561256357600080fd5b600061257185828601612494565b925050602061258285828601612494565b9150509250929050565b6000806000606084860312156125a157600080fd5b60006125af86828701612494565b93505060206125c086828701612494565b92505060406125d186828701612512565b9150509250925092565b600080600080608085870312156125f157600080fd5b60006125ff87828801612494565b945050602061261087828801612494565b935050604061262187828801612512565b925050606085013567ffffffffffffffff81111561263e57600080fd5b61264a878288016124e8565b91505092959194509250565b6000806040838503121561266957600080fd5b600061267785828601612494565b9250506020612688858286016124a9565b9150509250929050565b600080604083850312156126a557600080fd5b60006126b385828601612494565b92505060206126c485828601612512565b9150509250929050565b6000602082840312156126e057600080fd5b60006126ee848285016124be565b91505092915050565b60006020828403121561270957600080fd5b6000612717848285016124d3565b91505092915050565b60006020828403121561273257600080fd5b600061274084828501612512565b91505092915050565b60006127558383612b36565b905092915050565b6127668161319a565b82525050565b61277d6127788261319a565b6132fc565b82525050565b600061278e82613008565b6127988185613036565b9350836020820285016127aa85612ff8565b8060005b858110156127e657848403895281516127c78582612749565b94506127d283613029565b925060208a019950506001810190506127ae565b50829750879550505050505092915050565b612801816131ac565b82525050565b600061281282613013565b61281c8185613047565b935061282c81856020860161321d565b6128358161340d565b840191505092915050565b600061284b8261301e565b6128558185613058565b935061286581856020860161321d565b61286e8161340d565b840191505092915050565b60006128848261301e565b61288e8185613069565b935061289e81856020860161321d565b6128a78161340d565b840191505092915050565b60006128bd8261301e565b6128c7818561307a565b93506128d781856020860161321d565b80840191505092915050565b60006128f0600a8361307a565b91506128fb8261342b565b600a82019050919050565b6000612913603283613069565b915061291e82613454565b604082019050919050565b6000612936602583613069565b9150612941826134a3565b604082019050919050565b6000612959601c83613069565b9150612964826134f2565b602082019050919050565b600061297c602483613069565b91506129878261351b565b604082019050919050565b600061299f601983613069565b91506129aa8261356a565b602082019050919050565b60006129c2606a8361307a565b91506129cd82613593565b606a82019050919050565b60006129e5602983613069565b91506129f08261362e565b604082019050919050565b6000612a08602e83613069565b9150612a138261367d565b604082019050919050565b6000612a2b60028361307a565b9150612a36826136cc565b600282019050919050565b6000612a4e603e83613069565b9150612a59826136f5565b604082019050919050565b6000612a71602083613069565b9150612a7c82613744565b602082019050919050565b6000612a94600a8361307a565b9150612a9f8261376d565b600a82019050919050565b6000612ab7601883613069565b9150612ac282613796565b602082019050919050565b6000612ada602183613069565b9150612ae5826137bf565b604082019050919050565b6000612afd601d8361307a565b9150612b088261380e565b601d82019050919050565b6000612b20602e83613069565b9150612b2b82613837565b604082019050919050565b6000606083016000830151612b4e6000860182612be4565b5060208301518482036020860152612b668282612840565b91505060408301518482036040860152612b808282612840565b9150508091505092915050565b6000606083016000830151612ba56000860182612be4565b5060208301518482036020860152612bbd8282612840565b91505060408301518482036040860152612bd78282612840565b9150508091505092915050565b612bed81613204565b82525050565b612bfc81613204565b82525050565b6000612c0e828461276c565b60148201915081905092915050565b6000612c2882612a87565b9150612c3482866128b2565b9150612c3f826128e3565b9150612c4b82856128b2565b9150612c56826129b5565b9150612c6282846128b2565b9150612c6d82612a1e565b9150819050949350505050565b6000612c8582612af0565b9150612c9182846128b2565b915081905092915050565b6000602082019050612cb1600083018461275d565b92915050565b6000608082019050612ccc600083018761275d565b612cd9602083018661275d565b612ce66040830185612bf3565b8181036060830152612cf88184612807565b905095945050505050565b6000606082019050612d18600083018661275d565b612d256020830185612bf3565b612d326040830184612bf3565b949350505050565b60006020820190508181036000830152612d548184612783565b905092915050565b6000602082019050612d7160008301846127f8565b92915050565b60006020820190508181036000830152612d918184612879565b905092915050565b60006060820190508181036000830152612db38186612879565b90508181036020830152612dc78185612879565b90508181036040830152612ddb8184612879565b9050949350505050565b60006020820190508181036000830152612dfe81612906565b9050919050565b60006020820190508181036000830152612e1e81612929565b9050919050565b60006020820190508181036000830152612e3e8161294c565b9050919050565b60006020820190508181036000830152612e5e8161296f565b9050919050565b60006020820190508181036000830152612e7e81612992565b9050919050565b60006020820190508181036000830152612e9e816129d8565b9050919050565b60006020820190508181036000830152612ebe816129fb565b9050919050565b60006020820190508181036000830152612ede81612a41565b9050919050565b60006020820190508181036000830152612efe81612a64565b9050919050565b60006020820190508181036000830152612f1e81612aaa565b9050919050565b60006020820190508181036000830152612f3e81612acd565b9050919050565b60006020820190508181036000830152612f5e81612b13565b9050919050565b60006020820190508181036000830152612f7f8184612b8d565b905092915050565b6000602082019050612f9c6000830184612bf3565b92915050565b6000612fac612fbd565b9050612fb88282613282565b919050565b6000604051905090565b600067ffffffffffffffff821115612fe257612fe16133de565b5b612feb8261340d565b9050602081019050919050565b6000819050602082019050919050565b600081519050919050565b600081519050919050565b600081519050919050565b6000602082019050919050565b600082825260208201905092915050565b600082825260208201905092915050565b600082825260208201905092915050565b600082825260208201905092915050565b600081905092915050565b600061309082613204565b915061309b83613204565b9250827fffffffffffffffffffffffffffffffffffffffffffffffffffffffffffffffff038211156130d0576130cf613351565b5b828201905092915050565b60006130e682613204565b91506130f183613204565b92508261310157613100613380565b5b828204905092915050565b600061311782613204565b915061312283613204565b9250817fffffffffffffffffffffffffffffffffffffffffffffffffffffffffffffffff048311821515161561315b5761315a613351565b5b828202905092915050565b600061317182613204565b915061317c83613204565b92508282101561318f5761318e613351565b5b828203905092915050565b60006131a5826131e4565b9050919050565b60008115159050919050565b60007fffffffff0000000000000000000000000000000000000000000000000000000082169050919050565b600073ffffffffffffffffffffffffffffffffffffffff82169050919050565b6000819050919050565b82818337600083830152505050565b60005b8381101561323b578082015181840152602081019050613220565b8381111561324a576000848401525b50505050565b6000600282049050600182168061326857607f821691505b6020821081141561327c5761327b6133af565b5b50919050565b61328b8261340d565b810181811067ffffffffffffffff821117156132aa576132a96133de565b5b80604052505050565b60006132be82613204565b91507fffffffffffffffffffffffffffffffffffffffffffffffffffffffffffffffff8214156132f1576132f0613351565b5b600182019050919050565b60006133078261330e565b9050919050565b60006133198261341e565b9050919050565b600061332b82613204565b915061333683613204565b92508261334657613345613380565b5b828206905092915050565b7f4e487b7100000000000000000000000000000000000000000000000000000000600052601160045260246000fd5b7f4e487b7100000000000000000000000000000000000000000000000000000000600052601260045260246000fd5b7f4e487b7100000000000000000000000000000000000000000000000000000000600052602260045260246000fd5b7f4e487b7100000000000000000000000000000000000000000000000000000000600052604160045260246000fd5b6000601f19601f8301169050919050565b60008160601b9050919050565b7f2d2d204e465420233a2000000000000000000000000000000000000000000000600082015250565b7f4552433732313a207472616e7366657220746f206e6f6e20455243373231526560008201527f63656976657220696d706c656d656e7465720000000000000000000000000000602082015250565b7f4552433732313a207472616e736665722066726f6d20696e636f72726563742060008201527f6f776e6572000000000000000000000000000000000000000000000000000000602082015250565b7f4552433732313a20746f6b656e20616c7265616479206d696e74656400000000600082015250565b7f4552433732313a207472616e7366657220746f20746865207a65726f2061646460008201527f7265737300000000000000000000000000000000000000000000000000000000602082015250565b7f4552433732313a20617070726f766520746f2063616c6c657200000000000000600082015250565b7f222c20226465736372697074696f6e223a202254686973204e4654207265707260008201527f6573656e7473207468652072696768747320746f20746865207465616d20636860208201527f6f73656e2062792074686520627265616b207061727469636970616e74222c2060408201527f22696d616765223a202200000000000000000000000000000000000000000000606082015250565b7f4552433732313a2061646472657373207a65726f206973206e6f74206120766160008201527f6c6964206f776e65720000000000000000000000000000000000000000000000602082015250565b7f45524337323155524953746f726167653a2055524920736574206f66206e6f6e60008201527f6578697374656e7420746f6b656e000000000000000000000000000000000000602082015250565b7f227d000000000000000000000000000000000000000000000000000000000000600082015250565b7f4552433732313a20617070726f76652063616c6c6572206973206e6f7420746f60008201527f6b656e206f776e6572206e6f7220617070726f76656420666f7220616c6c0000602082015250565b7f4552433732313a206d696e7420746f20746865207a65726f2061646472657373600082015250565b7f7b226e616d65223a202200000000000000000000000000000000000000000000600082015250565b7f4552433732313a20696e76616c696420746f6b656e2049440000000000000000600082015250565b7f4552433732313a20617070726f76616c20746f2063757272656e74206f776e6560008201527f7200000000000000000000000000000000000000000000000000000000000000602082015250565b7f646174613a6170706c69636174696f6e2f6a736f6e3b6261736536342c000000600082015250565b7f4552433732313a2063616c6c6572206973206e6f7420746f6b656e206f776e6560008201527f72206e6f7220617070726f766564000000000000000000000000000000000000602082015250565b61388f8161319a565b811461389a57600080fd5b50565b6138a6816131ac565b81146138b157600080fd5b50565b6138bd816131b8565b81146138c857600080fd5b50565b6138d481613204565b81146138df57600080fd5b5056fe4142434445464748494a4b4c4d4e4f505152535455565758595a6162636465666768696a6b6c6d6e6f707172737475767778797a303132333435363738392b2fa264697066735822122061e9a82de0a2bb797900142e48fd716ab56ac7395a3d29ee6d6e672c4094983064736f6c63430008010033496e697469616c697a6564206e6577207465616d2077697468206e616d652025732c20696d67202573",
  "linkReferences": {},
  "deployedLinkReferences": {}
}