{
    "_format": "hh-sol-artifact-1",
    "contractName": "BreakDaoMembershipNFT",
    "sourceName": "contracts/BreakDaoMembershipToken.sol",
    "abi": [
        {
            "inputs": [],
            "stateMutability": "nonpayable",
            "type": "constructor"
        },
        {
            "anonymous": false,
            "inputs": [
                {
                    "indexed": true,
                    "internalType": "address",
                    "name": "owner",
                    "type": "address"
                },
                {
                    "indexed": true,
                    "internalType": "address",
                    "name": "approved",
                    "type": "address"
                },
                {
                    "indexed": true,
                    "internalType": "uint256",
                    "name": "tokenId",
                    "type": "uint256"
                }
            ],
            "name": "Approval",
            "type": "event"
        },
        {
            "anonymous": false,
            "inputs": [
                {
                    "indexed": true,
                    "internalType": "address",
                    "name": "owner",
                    "type": "address"
                },
                {
                    "indexed": true,
                    "internalType": "address",
                    "name": "operator",
                    "type": "address"
                },
                {
                    "indexed": false,
                    "internalType": "bool",
                    "name": "approved",
                    "type": "bool"
                }
            ],
            "name": "ApprovalForAll",
            "type": "event"
        },
        {
            "anonymous": false,
            "inputs": [
                {
                    "indexed": true,
                    "internalType": "address",
                    "name": "from",
                    "type": "address"
                },
                {
                    "indexed": true,
                    "internalType": "address",
                    "name": "to",
                    "type": "address"
                },
                {
                    "indexed": true,
                    "internalType": "uint256",
                    "name": "tokenId",
                    "type": "uint256"
                }
            ],
            "name": "Transfer",
            "type": "event"
        },
        {
            "anonymous": false,
            "inputs": [
                {
                    "indexed": false,
                    "internalType": "address",
                    "name": "sender",
                    "type": "address"
                },
                {
                    "indexed": false,
                    "internalType": "uint256",
                    "name": "tokenId",
                    "type": "uint256"
                }
            ],
            "name": "membershipNFTMinted",
            "type": "event"
        },
        {
            "inputs": [
                {
                    "internalType": "address",
                    "name": "to",
                    "type": "address"
                },
                {
                    "internalType": "uint256",
                    "name": "tokenId",
                    "type": "uint256"
                }
            ],
            "name": "approve",
            "outputs": [],
            "stateMutability": "nonpayable",
            "type": "function"
        },
        {
            "inputs": [
                {
                    "internalType": "address",
                    "name": "owner",
                    "type": "address"
                }
            ],
            "name": "balanceOf",
            "outputs": [
                {
                    "internalType": "uint256",
                    "name": "",
                    "type": "uint256"
                }
            ],
            "stateMutability": "view",
            "type": "function"
        },
        {
            "inputs": [],
            "name": "checkIfUserHasNft",
            "outputs": [
                {
                    "internalType": "bool",
                    "name": "",
                    "type": "bool"
                }
            ],
            "stateMutability": "view",
            "type": "function"
        },
        {
            "inputs": [
                {
                    "internalType": "uint256",
                    "name": "tokenId",
                    "type": "uint256"
                }
            ],
            "name": "getApproved",
            "outputs": [
                {
                    "internalType": "address",
                    "name": "",
                    "type": "address"
                }
            ],
            "stateMutability": "view",
            "type": "function"
        },
        {
            "inputs": [
                {
                    "internalType": "address",
                    "name": "owner",
                    "type": "address"
                },
                {
                    "internalType": "address",
                    "name": "operator",
                    "type": "address"
                }
            ],
            "name": "isApprovedForAll",
            "outputs": [
                {
                    "internalType": "bool",
                    "name": "",
                    "type": "bool"
                }
            ],
            "stateMutability": "view",
            "type": "function"
        },
        {
            "inputs": [],
            "name": "makeAnNFT",
            "outputs": [],
            "stateMutability": "nonpayable",
            "type": "function"
        },
        {
            "inputs": [],
            "name": "name",
            "outputs": [
                {
                    "internalType": "string",
                    "name": "",
                    "type": "string"
                }
            ],
            "stateMutability": "view",
            "type": "function"
        },
        {
            "inputs": [
                {
                    "internalType": "address",
                    "name": "",
                    "type": "address"
                }
            ],
            "name": "nftHolders",
            "outputs": [
                {
                    "internalType": "uint256",
                    "name": "",
                    "type": "uint256"
                }
            ],
            "stateMutability": "view",
            "type": "function"
        },
        {
            "inputs": [
                {
                    "internalType": "uint256",
                    "name": "tokenId",
                    "type": "uint256"
                }
            ],
            "name": "ownerOf",
            "outputs": [
                {
                    "internalType": "address",
                    "name": "",
                    "type": "address"
                }
            ],
            "stateMutability": "view",
            "type": "function"
        },
        {
            "inputs": [
                {
                    "internalType": "address",
                    "name": "from",
                    "type": "address"
                },
                {
                    "internalType": "address",
                    "name": "to",
                    "type": "address"
                },
                {
                    "internalType": "uint256",
                    "name": "tokenId",
                    "type": "uint256"
                }
            ],
            "name": "safeTransferFrom",
            "outputs": [],
            "stateMutability": "nonpayable",
            "type": "function"
        },
        {
            "inputs": [
                {
                    "internalType": "address",
                    "name": "from",
                    "type": "address"
                },
                {
                    "internalType": "address",
                    "name": "to",
                    "type": "address"
                },
                {
                    "internalType": "uint256",
                    "name": "tokenId",
                    "type": "uint256"
                },
                {
                    "internalType": "bytes",
                    "name": "_data",
                    "type": "bytes"
                }
            ],
            "name": "safeTransferFrom",
            "outputs": [],
            "stateMutability": "nonpayable",
            "type": "function"
        },
        {
            "inputs": [
                {
                    "internalType": "address",
                    "name": "operator",
                    "type": "address"
                },
                {
                    "internalType": "bool",
                    "name": "approved",
                    "type": "bool"
                }
            ],
            "name": "setApprovalForAll",
            "outputs": [],
            "stateMutability": "nonpayable",
            "type": "function"
        },
        {
            "inputs": [
                {
                    "internalType": "bytes4",
                    "name": "interfaceId",
                    "type": "bytes4"
                }
            ],
            "name": "supportsInterface",
            "outputs": [
                {
                    "internalType": "bool",
                    "name": "",
                    "type": "bool"
                }
            ],
            "stateMutability": "view",
            "type": "function"
        },
        {
            "inputs": [],
            "name": "symbol",
            "outputs": [
                {
                    "internalType": "string",
                    "name": "",
                    "type": "string"
                }
            ],
            "stateMutability": "view",
            "type": "function"
        },
        {
            "inputs": [
                {
                    "internalType": "uint256",
                    "name": "_tokenId",
                    "type": "uint256"
                }
            ],
            "name": "tokenURI",
            "outputs": [
                {
                    "internalType": "string",
                    "name": "",
                    "type": "string"
                }
            ],
            "stateMutability": "view",
            "type": "function"
        },
        {
            "inputs": [
                {
                    "internalType": "address",
                    "name": "from",
                    "type": "address"
                },
                {
                    "internalType": "address",
                    "name": "to",
                    "type": "address"
                },
                {
                    "internalType": "uint256",
                    "name": "tokenId",
                    "type": "uint256"
                }
            ],
            "name": "transferFrom",
            "outputs": [],
            "stateMutability": "nonpayable",
            "type": "function"
        }
    ],
    "bytecode": "0x60806040523480156200001157600080fd5b506040518060400160405280601581526020017f427265616b44616f4d656d626572736869704e465400000000000000000000008152506040518060400160405280600381526020017f42444d0000000000000000000000000000000000000000000000000000000000815250816000908051906020019062000096929190620001cf565b508060019080519060200190620000af929190620001cf565b505050620000fd6040518060400160405280601e81526020017f54686973206973206d79204e465420636f6e74726163742e2057686f612100008152506200010360201b62000bd31760201c565b620003ac565b620001a3816040516024016200011a9190620002c0565b6040516020818303038152906040527f41304fac000000000000000000000000000000000000000000000000000000007bffffffffffffffffffffffffffffffffffffffffffffffffffffffff19166020820180517bffffffffffffffffffffffffffffffffffffffffffffffffffffffff8381831617835250505050620001a660201b60201c565b50565b60008151905060006a636f6e736f6c652e6c6f679050602083016000808483855afa5050505050565b828054620001dd9062000336565b90600052602060002090601f0160209004810192826200020157600085556200024d565b82601f106200021c57805160ff19168380011785556200024d565b828001600101855582156200024d579182015b828111156200024c5782518255916020019190600101906200022f565b5b5090506200025c919062000260565b5090565b5b808211156200027b57600081600090555060010162000261565b5090565b60006200028c82620002e4565b620002988185620002ef565b9350620002aa81856020860162000300565b620002b5816200039b565b840191505092915050565b60006020820190508181036000830152620002dc81846200027f565b905092915050565b600081519050919050565b600082825260208201905092915050565b60005b838110156200032057808201518184015260208101905062000303565b8381111562000330576000848401525b50505050565b600060028204905060018216806200034f57607f821691505b602082108114156200036657620003656200036c565b5b50919050565b7f4e487b7100000000000000000000000000000000000000000000000000000000600052602260045260246000fd5b6000601f19601f8301169050919050565b61307c80620003bc6000396000f3fe608060405234801561001057600080fd5b50600436106101005760003560e01c80637df124a111610097578063c732d39611610066578063c732d396146102bd578063c87b56dd146102db578063e4d098e11461030b578063e985e9c51461031557610100565b80637df124a11461023757806395d89b4114610267578063a22cb46514610285578063b88d4fde146102a157610100565b806323b872dd116100d357806323b872dd1461019f57806342842e0e146101bb5780636352211e146101d757806370a082311461020757610100565b806301ffc9a71461010557806306fdde0314610135578063081812fc14610153578063095ea7b314610183575b600080fd5b61011f600480360381019061011a9190611edf565b610345565b60405161012c9190612390565b60405180910390f35b61013d610427565b60405161014a91906123ab565b60405180910390f35b61016d60048036038101906101689190611f31565b6104b9565b60405161017a9190612300565b60405180910390f35b61019d60048036038101906101989190611ea3565b61053e565b005b6101b960048036038101906101b49190611d9d565b610656565b005b6101d560048036038101906101d09190611d9d565b6106b6565b005b6101f160048036038101906101ec9190611f31565b6106d6565b6040516101fe9190612300565b60405180910390f35b610221600480360381019061021c9190611d38565b610788565b60405161022e91906125c4565b60405180910390f35b610251600480360381019061024c9190611d38565b610840565b60405161025e91906125c4565b60405180910390f35b61026f610858565b60405161027c91906123ab565b60405180910390f35b61029f600480360381019061029a9190611e67565b6108ea565b005b6102bb60048036038101906102b69190611dec565b610900565b005b6102c5610962565b6040516102d29190612390565b60405180910390f35b6102f560048036038101906102f09190611f31565b6109c3565b60405161030291906123ab565b60405180910390f35b610313610a27565b005b61032f600480360381019061032a9190611d61565b610b3f565b60405161033c9190612390565b60405180910390f35b60007f80ac58cd000000000000000000000000000000000000000000000000000000007bffffffffffffffffffffffffffffffffffffffffffffffffffffffff1916827bffffffffffffffffffffffffffffffffffffffffffffffffffffffff1916148061041057507f5b5e139f000000000000000000000000000000000000000000000000000000007bffffffffffffffffffffffffffffffffffffffffffffffffffffffff1916827bffffffffffffffffffffffffffffffffffffffffffffffffffffffff1916145b80610420575061041f82610c6c565b5b9050919050565b60606000805461043690612843565b80601f016020809104026020016040519081016040528092919081815260200182805461046290612843565b80156104af5780601f10610484576101008083540402835291602001916104af565b820191906000526020600020905b81548152906001019060200180831161049257829003601f168201915b5050505050905090565b60006104c482610cd6565b610503576040517f08c379a00000000000000000000000000000000000000000000000000000000081526004016104fa90612544565b60405180910390fd5b6004600083815260200190815260200160002060009054906101000a900473ffffffffffffffffffffffffffffffffffffffff169050919050565b6000610549826106d6565b90508073ffffffffffffffffffffffffffffffffffffffff168373ffffffffffffffffffffffffffffffffffffffff1614156105ba576040517f08c379a00000000000000000000000000000000000000000000000000000000081526004016105b190612584565b60405180910390fd5b8073ffffffffffffffffffffffffffffffffffffffff166105d9610d42565b73ffffffffffffffffffffffffffffffffffffffff161480610608575061060781610602610d42565b610b3f565b5b610647576040517f08c379a000000000000000000000000000000000000000000000000000000000815260040161063e906124a4565b60405180910390fd5b6106518383610d4a565b505050565b610667610661610d42565b82610e03565b6106a6576040517f08c379a000000000000000000000000000000000000000000000000000000000815260040161069d906125a4565b60405180910390fd5b6106b1838383610ee1565b505050565b6106d183838360405180602001604052806000815250610900565b505050565b6000806002600084815260200190815260200160002060009054906101000a900473ffffffffffffffffffffffffffffffffffffffff169050600073ffffffffffffffffffffffffffffffffffffffff168173ffffffffffffffffffffffffffffffffffffffff16141561077f576040517f08c379a0000000000000000000000000000000000000000000000000000000008152600401610776906124e4565b60405180910390fd5b80915050919050565b60008073ffffffffffffffffffffffffffffffffffffffff168273ffffffffffffffffffffffffffffffffffffffff1614156107f9576040517f08c379a00000000000000000000000000000000000000000000000000000000081526004016107f0906124c4565b60405180910390fd5b600360008373ffffffffffffffffffffffffffffffffffffffff1673ffffffffffffffffffffffffffffffffffffffff168152602001908152602001600020549050919050565b60086020528060005260406000206000915090505481565b60606001805461086790612843565b80601f016020809104026020016040519081016040528092919081815260200182805461089390612843565b80156108e05780601f106108b5576101008083540402835291602001916108e0565b820191906000526020600020905b8154815290600101906020018083116108c357829003601f168201915b5050505050905090565b6108fc6108f5610d42565b838361113d565b5050565b61091161090b610d42565b83610e03565b610950576040517f08c379a0000000000000000000000000000000000000000000000000000000008152600401610947906125a4565b60405180910390fd5b61095c848484846112aa565b50505050565b600080600860003373ffffffffffffffffffffffffffffffffffffffff1673ffffffffffffffffffffffffffffffffffffffff16815260200190815260200160002054905060008111156109ba5760019150506109c0565b60009150505b90565b606060006109f76109d384611306565b6040516020016109e391906122d3565b6040516020818303038152906040526114b3565b9050600081604051602001610a0c91906122b1565b60405160208183030381529060405290508092505050919050565b6000610a336007611671565b9050610a3f338261167f565b610a9d6040518060400160405280601781526020017f4d696e746564204e465420666f72206f776e657220257300000000000000000081525033604051602001610a899190612296565b60405160208183030381529060405261169d565b6000610aa8826109c3565b9050610ab46007611739565b610abe828261174f565b81600860003373ffffffffffffffffffffffffffffffffffffffff1673ffffffffffffffffffffffffffffffffffffffff168152602001908152602001600020819055507f7430cefc529011c1b720a4803c3a12db2bfdf282e089e2d26ff4929ef11a703c3383604051610b33929190612367565b60405180910390a15050565b6000600560008473ffffffffffffffffffffffffffffffffffffffff1673ffffffffffffffffffffffffffffffffffffffff16815260200190815260200160002060008373ffffffffffffffffffffffffffffffffffffffff1673ffffffffffffffffffffffffffffffffffffffff16815260200190815260200160002060009054906101000a900460ff16905092915050565b610c6981604051602401610be791906123ab565b6040516020818303038152906040527f41304fac000000000000000000000000000000000000000000000000000000007bffffffffffffffffffffffffffffffffffffffffffffffffffffffff19166020820180517bffffffffffffffffffffffffffffffffffffffffffffffffffffffff83818316178352505050506117c3565b50565b60007f01ffc9a7000000000000000000000000000000000000000000000000000000007bffffffffffffffffffffffffffffffffffffffffffffffffffffffff1916827bffffffffffffffffffffffffffffffffffffffffffffffffffffffff1916149050919050565b60008073ffffffffffffffffffffffffffffffffffffffff166002600084815260200190815260200160002060009054906101000a900473ffffffffffffffffffffffffffffffffffffffff1673ffffffffffffffffffffffffffffffffffffffff1614159050919050565b600033905090565b816004600083815260200190815260200160002060006101000a81548173ffffffffffffffffffffffffffffffffffffffff021916908373ffffffffffffffffffffffffffffffffffffffff160217905550808273ffffffffffffffffffffffffffffffffffffffff16610dbd836106d6565b73ffffffffffffffffffffffffffffffffffffffff167f8c5be1e5ebec7d5bd14f71427d1e84f3dd0314c0f7b2291e5b200ac8c7c3b92560405160405180910390a45050565b6000610e0e82610cd6565b610e4d576040517f08c379a0000000000000000000000000000000000000000000000000000000008152600401610e4490612484565b60405180910390fd5b6000610e58836106d6565b90508073ffffffffffffffffffffffffffffffffffffffff168473ffffffffffffffffffffffffffffffffffffffff161480610ec757508373ffffffffffffffffffffffffffffffffffffffff16610eaf846104b9565b73ffffffffffffffffffffffffffffffffffffffff16145b80610ed85750610ed78185610b3f565b5b91505092915050565b8273ffffffffffffffffffffffffffffffffffffffff16610f01826106d6565b73ffffffffffffffffffffffffffffffffffffffff1614610f57576040517f08c379a0000000000000000000000000000000000000000000000000000000008152600401610f4e90612564565b60405180910390fd5b600073ffffffffffffffffffffffffffffffffffffffff168273ffffffffffffffffffffffffffffffffffffffff161415610fc7576040517f08c379a0000000000000000000000000000000000000000000000000000000008152600401610fbe90612444565b60405180910390fd5b610fd28383836117ec565b610fdd600082610d4a565b6001600360008573ffffffffffffffffffffffffffffffffffffffff1673ffffffffffffffffffffffffffffffffffffffff168152602001908152602001600020600082825461102d9190612759565b925050819055506001600360008473ffffffffffffffffffffffffffffffffffffffff1673ffffffffffffffffffffffffffffffffffffffff16815260200190815260200160002060008282546110849190612678565b92505081905550816002600083815260200190815260200160002060006101000a81548173ffffffffffffffffffffffffffffffffffffffff021916908373ffffffffffffffffffffffffffffffffffffffff160217905550808273ffffffffffffffffffffffffffffffffffffffff168473ffffffffffffffffffffffffffffffffffffffff167fddf252ad1be2c89b69c2b068fc378daa952ba7f163c4a11628f55a4df523b3ef60405160405180910390a4505050565b8173ffffffffffffffffffffffffffffffffffffffff168373ffffffffffffffffffffffffffffffffffffffff1614156111ac576040517f08c379a00000000000000000000000000000000000000000000000000000000081526004016111a390612464565b60405180910390fd5b80600560008573ffffffffffffffffffffffffffffffffffffffff1673ffffffffffffffffffffffffffffffffffffffff16815260200190815260200160002060008473ffffffffffffffffffffffffffffffffffffffff1673ffffffffffffffffffffffffffffffffffffffff16815260200190815260200160002060006101000a81548160ff0219169083151502179055508173ffffffffffffffffffffffffffffffffffffffff168373ffffffffffffffffffffffffffffffffffffffff167f17307eab39ab6107e8899845ad3d59bd9653f200f220920489ca2b5937696c318360405161129d9190612390565b60405180910390a3505050565b6112b5848484610ee1565b6112c1848484846117f1565b611300576040517f08c379a00000000000000000000000000000000000000000000000000000000081526004016112f790612404565b60405180910390fd5b50505050565b6060600082141561134e576040518060400160405280600181526020017f300000000000000000000000000000000000000000000000000000000000000081525090506114ae565b600082905060005b60008214611380578080611369906128a6565b915050600a8261137991906126ce565b9150611356565b60008167ffffffffffffffff8111156113c2577f4e487b7100000000000000000000000000000000000000000000000000000000600052604160045260246000fd5b6040519080825280601f01601f1916602001820160405280156113f45781602001600182028036833780820191505090505b5090505b600085146114a75760018261140d9190612759565b9150600a8561141c9190612913565b60306114289190612678565b60f81b818381518110611464577f4e487b7100000000000000000000000000000000000000000000000000000000600052603260045260246000fd5b60200101907effffffffffffffffffffffffffffffffffffffffffffffffffffffffffffff1916908160001a905350600a856114a091906126ce565b94506113f8565b8093505050505b919050565b606060008251905060008114156114dc576040518060200160405280600081525091505061166c565b600060036002836114ed9190612678565b6114f791906126ce565b600461150391906126ff565b905060006020826115149190612678565b67ffffffffffffffff811115611553577f4e487b7100000000000000000000000000000000000000000000000000000000600052604160045260246000fd5b6040519080825280601f01601f1916602001820160405280156115855781602001600182028036833780820191505090505b5090506000604051806060016040528060408152602001613007604091399050600181016020830160005b868110156116295760038101905062ffffff818a015116603f8160121c168401518060081b905060ff603f83600c1c1686015116810190508060081b905060ff603f8360061c1686015116810190508060081b905060ff603f831686015116810190508060e01b905080845260048401935050506115b0565b50600386066001811461164357600281146116535761165e565b613d3d60f01b600283035261165e565b603d60f81b60018303525b508484525050819450505050505b919050565b600081600001549050919050565b611699828260405180602001604052806000815250611988565b5050565b61173582826040516024016116b39291906123cd565b6040516020818303038152906040527f4b5c4277000000000000000000000000000000000000000000000000000000007bffffffffffffffffffffffffffffffffffffffffffffffffffffffff19166020820180517bffffffffffffffffffffffffffffffffffffffffffffffffffffffff83818316178352505050506117c3565b5050565b6001816000016000828254019250508190555050565b61175882610cd6565b611797576040517f08c379a000000000000000000000000000000000000000000000000000000000815260040161178e90612504565b60405180910390fd5b806006600084815260200190815260200160002090805190602001906117be929190611bc4565b505050565b60008151905060006a636f6e736f6c652e6c6f679050602083016000808483855afa5050505050565b505050565b60006118128473ffffffffffffffffffffffffffffffffffffffff166119e3565b1561197b578373ffffffffffffffffffffffffffffffffffffffff1663150b7a0261183b610d42565b8786866040518563ffffffff1660e01b815260040161185d949392919061231b565b602060405180830381600087803b15801561187757600080fd5b505af19250505080156118a857506040513d601f19601f820116820180604052508101906118a59190611f08565b60015b61192b573d80600081146118d8576040519150601f19603f3d011682016040523d82523d6000602084013e6118dd565b606091505b50600081511415611923576040517f08c379a000000000000000000000000000000000000000000000000000000000815260040161191a90612404565b60405180910390fd5b805181602001fd5b63150b7a0260e01b7bffffffffffffffffffffffffffffffffffffffffffffffffffffffff1916817bffffffffffffffffffffffffffffffffffffffffffffffffffffffff191614915050611980565b600190505b949350505050565b61199283836119f6565b61199f60008484846117f1565b6119de576040517f08c379a00000000000000000000000000000000000000000000000000000000081526004016119d590612404565b60405180910390fd5b505050565b600080823b905060008111915050919050565b600073ffffffffffffffffffffffffffffffffffffffff168273ffffffffffffffffffffffffffffffffffffffff161415611a66576040517f08c379a0000000000000000000000000000000000000000000000000000000008152600401611a5d90612524565b60405180910390fd5b611a6f81610cd6565b15611aaf576040517f08c379a0000000000000000000000000000000000000000000000000000000008152600401611aa690612424565b60405180910390fd5b611abb600083836117ec565b6001600360008473ffffffffffffffffffffffffffffffffffffffff1673ffffffffffffffffffffffffffffffffffffffff1681526020019081526020016000206000828254611b0b9190612678565b92505081905550816002600083815260200190815260200160002060006101000a81548173ffffffffffffffffffffffffffffffffffffffff021916908373ffffffffffffffffffffffffffffffffffffffff160217905550808273ffffffffffffffffffffffffffffffffffffffff16600073ffffffffffffffffffffffffffffffffffffffff167fddf252ad1be2c89b69c2b068fc378daa952ba7f163c4a11628f55a4df523b3ef60405160405180910390a45050565b828054611bd090612843565b90600052602060002090601f016020900481019282611bf25760008555611c39565b82601f10611c0b57805160ff1916838001178555611c39565b82800160010185558215611c39579182015b82811115611c38578251825591602001919060010190611c1d565b5b509050611c469190611c4a565b5090565b5b80821115611c63576000816000905550600101611c4b565b5090565b6000611c7a611c7584612604565b6125df565b905082815260208101848484011115611c9257600080fd5b611c9d848285612801565b509392505050565b600081359050611cb481612faa565b92915050565b600081359050611cc981612fc1565b92915050565b600081359050611cde81612fd8565b92915050565b600081519050611cf381612fd8565b92915050565b600082601f830112611d0a57600080fd5b8135611d1a848260208601611c67565b91505092915050565b600081359050611d3281612fef565b92915050565b600060208284031215611d4a57600080fd5b6000611d5884828501611ca5565b91505092915050565b60008060408385031215611d7457600080fd5b6000611d8285828601611ca5565b9250506020611d9385828601611ca5565b9150509250929050565b600080600060608486031215611db257600080fd5b6000611dc086828701611ca5565b9350506020611dd186828701611ca5565b9250506040611de286828701611d23565b9150509250925092565b60008060008060808587031215611e0257600080fd5b6000611e1087828801611ca5565b9450506020611e2187828801611ca5565b9350506040611e3287828801611d23565b925050606085013567ffffffffffffffff811115611e4f57600080fd5b611e5b87828801611cf9565b91505092959194509250565b60008060408385031215611e7a57600080fd5b6000611e8885828601611ca5565b9250506020611e9985828601611cba565b9150509250929050565b60008060408385031215611eb657600080fd5b6000611ec485828601611ca5565b9250506020611ed585828601611d23565b9150509250929050565b600060208284031215611ef157600080fd5b6000611eff84828501611ccf565b91505092915050565b600060208284031215611f1a57600080fd5b6000611f2884828501611ce4565b91505092915050565b600060208284031215611f4357600080fd5b6000611f5184828501611d23565b91505092915050565b611f638161278d565b82525050565b611f7a611f758261278d565b6128ef565b82525050565b611f898161279f565b82525050565b6000611f9a82612635565b611fa4818561264b565b9350611fb4818560208601612810565b611fbd81612a00565b840191505092915050565b6000611fd382612640565b611fdd818561265c565b9350611fed818560208601612810565b611ff681612a00565b840191505092915050565b600061200c82612640565b612016818561266d565b9350612026818560208601612810565b80840191505092915050565b600061203f60328361265c565b915061204a82612a1e565b604082019050919050565b6000612062601c8361265c565b915061206d82612a6d565b602082019050919050565b600061208560248361265c565b915061209082612a96565b604082019050919050565b60006120a860198361265c565b91506120b382612ae5565b602082019050919050565b60006120cb602c8361265c565b91506120d682612b0e565b604082019050919050565b60006120ee60388361265c565b91506120f982612b5d565b604082019050919050565b6000612111602a8361265c565b915061211c82612bac565b604082019050919050565b600061213460298361265c565b915061213f82612bfb565b604082019050919050565b6000612157602e8361265c565b915061216282612c4a565b604082019050919050565b600061217b6101168361266d565b915061218682612c99565b61011682019050919050565b600061219f60208361265c565b91506121aa82612df3565b602082019050919050565b60006121c2602c8361265c565b91506121cd82612e1c565b604082019050919050565b60006121e560298361265c565b91506121f082612e6b565b604082019050919050565b600061220860218361265c565b915061221382612eba565b604082019050919050565b600061222b601d8361266d565b915061223682612f09565b601d82019050919050565b600061224e60318361265c565b915061225982612f32565b604082019050919050565b6000612271601b8361266d565b915061227c82612f81565b601b82019050919050565b612290816127f7565b82525050565b60006122a28284611f69565b60148201915081905092915050565b60006122bc8261221e565b91506122c88284612001565b915081905092915050565b60006122de82612264565b91506122ea8284612001565b91506122f58261216d565b915081905092915050565b60006020820190506123156000830184611f5a565b92915050565b60006080820190506123306000830187611f5a565b61233d6020830186611f5a565b61234a6040830185612287565b818103606083015261235c8184611f8f565b905095945050505050565b600060408201905061237c6000830185611f5a565b6123896020830184612287565b9392505050565b60006020820190506123a56000830184611f80565b92915050565b600060208201905081810360008301526123c58184611fc8565b905092915050565b600060408201905081810360008301526123e78185611fc8565b905081810360208301526123fb8184611fc8565b90509392505050565b6000602082019050818103600083015261241d81612032565b9050919050565b6000602082019050818103600083015261243d81612055565b9050919050565b6000602082019050818103600083015261245d81612078565b9050919050565b6000602082019050818103600083015261247d8161209b565b9050919050565b6000602082019050818103600083015261249d816120be565b9050919050565b600060208201905081810360008301526124bd816120e1565b9050919050565b600060208201905081810360008301526124dd81612104565b9050919050565b600060208201905081810360008301526124fd81612127565b9050919050565b6000602082019050818103600083015261251d8161214a565b9050919050565b6000602082019050818103600083015261253d81612192565b9050919050565b6000602082019050818103600083015261255d816121b5565b9050919050565b6000602082019050818103600083015261257d816121d8565b9050919050565b6000602082019050818103600083015261259d816121fb565b9050919050565b600060208201905081810360008301526125bd81612241565b9050919050565b60006020820190506125d96000830184612287565b92915050565b60006125e96125fa565b90506125f58282612875565b919050565b6000604051905090565b600067ffffffffffffffff82111561261f5761261e6129d1565b5b61262882612a00565b9050602081019050919050565b600081519050919050565b600081519050919050565b600082825260208201905092915050565b600082825260208201905092915050565b600081905092915050565b6000612683826127f7565b915061268e836127f7565b9250827fffffffffffffffffffffffffffffffffffffffffffffffffffffffffffffffff038211156126c3576126c2612944565b5b828201905092915050565b60006126d9826127f7565b91506126e4836127f7565b9250826126f4576126f3612973565b5b828204905092915050565b600061270a826127f7565b9150612715836127f7565b9250817fffffffffffffffffffffffffffffffffffffffffffffffffffffffffffffffff048311821515161561274e5761274d612944565b5b828202905092915050565b6000612764826127f7565b915061276f836127f7565b92508282101561278257612781612944565b5b828203905092915050565b6000612798826127d7565b9050919050565b60008115159050919050565b60007fffffffff0000000000000000000000000000000000000000000000000000000082169050919050565b600073ffffffffffffffffffffffffffffffffffffffff82169050919050565b6000819050919050565b82818337600083830152505050565b60005b8381101561282e578082015181840152602081019050612813565b8381111561283d576000848401525b50505050565b6000600282049050600182168061285b57607f821691505b6020821081141561286f5761286e6129a2565b5b50919050565b61287e82612a00565b810181811067ffffffffffffffff8211171561289d5761289c6129d1565b5b80604052505050565b60006128b1826127f7565b91507fffffffffffffffffffffffffffffffffffffffffffffffffffffffffffffffff8214156128e4576128e3612944565b5b600182019050919050565b60006128fa82612901565b9050919050565b600061290c82612a11565b9050919050565b600061291e826127f7565b9150612929836127f7565b92508261293957612938612973565b5b828206905092915050565b7f4e487b7100000000000000000000000000000000000000000000000000000000600052601160045260246000fd5b7f4e487b7100000000000000000000000000000000000000000000000000000000600052601260045260246000fd5b7f4e487b7100000000000000000000000000000000000000000000000000000000600052602260045260246000fd5b7f4e487b7100000000000000000000000000000000000000000000000000000000600052604160045260246000fd5b6000601f19601f8301169050919050565b60008160601b9050919050565b7f4552433732313a207472616e7366657220746f206e6f6e20455243373231526560008201527f63656976657220696d706c656d656e7465720000000000000000000000000000602082015250565b7f4552433732313a20746f6b656e20616c7265616479206d696e74656400000000600082015250565b7f4552433732313a207472616e7366657220746f20746865207a65726f2061646460008201527f7265737300000000000000000000000000000000000000000000000000000000602082015250565b7f4552433732313a20617070726f766520746f2063616c6c657200000000000000600082015250565b7f4552433732313a206f70657261746f7220717565727920666f72206e6f6e657860008201527f697374656e7420746f6b656e0000000000000000000000000000000000000000602082015250565b7f4552433732313a20617070726f76652063616c6c6572206973206e6f74206f7760008201527f6e6572206e6f7220617070726f76656420666f7220616c6c0000000000000000602082015250565b7f4552433732313a2062616c616e636520717565727920666f7220746865207a6560008201527f726f206164647265737300000000000000000000000000000000000000000000602082015250565b7f4552433732313a206f776e657220717565727920666f72206e6f6e657869737460008201527f656e7420746f6b656e0000000000000000000000000000000000000000000000602082015250565b7f45524337323155524953746f726167653a2055524920736574206f66206e6f6e60008201527f6578697374656e7420746f6b656e000000000000000000000000000000000000602082015250565b7f222c20226465736372697074696f6e223a202254686973204e4654207265707260008201527f6573656e7473206d656d6265727368697020746f2074686520427265616b204460208201527f414f2c20616c6c6f77696e672061636365737320746f206974732066756e637460408201527f696f6e73222c2022696d616765223a202268747470733a2f2f65787465726e6160608201527f6c2d636f6e74656e742e6475636b6475636b676f2e636f6d2f69752f3f753d6860808201527f747470732533412532462532466d65646961312e74656e6f722e636f6d25324660a08201527f696d61676573253246356539666537303463343037343930343763383134346560c08201527f35663764663762303125324674656e6f722e6769662533466974656d6964253360e08201527f44313536363134373326663d31266e6f66623d31227d0000000000000000000061010082015250565b7f4552433732313a206d696e7420746f20746865207a65726f2061646472657373600082015250565b7f4552433732313a20617070726f76656420717565727920666f72206e6f6e657860008201527f697374656e7420746f6b656e0000000000000000000000000000000000000000602082015250565b7f4552433732313a207472616e73666572206f6620746f6b656e2074686174206960008201527f73206e6f74206f776e0000000000000000000000000000000000000000000000602082015250565b7f4552433732313a20617070726f76616c20746f2063757272656e74206f776e6560008201527f7200000000000000000000000000000000000000000000000000000000000000602082015250565b7f646174613a6170706c69636174696f6e2f6a736f6e3b6261736536342c000000600082015250565b7f4552433732313a207472616e736665722063616c6c6572206973206e6f74206f60008201527f776e6572206e6f7220617070726f766564000000000000000000000000000000602082015250565b7f7b226e616d65223a2022427265616b2044414f204e465420233a200000000000600082015250565b612fb38161278d565b8114612fbe57600080fd5b50565b612fca8161279f565b8114612fd557600080fd5b50565b612fe1816127ab565b8114612fec57600080fd5b50565b612ff8816127f7565b811461300357600080fd5b5056fe4142434445464748494a4b4c4d4e4f505152535455565758595a6162636465666768696a6b6c6d6e6f707172737475767778797a303132333435363738392b2fa2646970667358221220f338862a4ccf4097f8fa81e870b72016059434d8c8cf58f3fda5a2ee16b93d5d64736f6c63430008010033",
    "linkReferences": {},
    "deployedLinkReferences": {}
}